:020000040800F2
:10000000880D00200101000809010008CB0100084B
:100010000D0100080F010008110100080000000098
:1000200000000000000000000000000013010008B4
:100030001501000800000000530100081F07000818
:100040001B0100081B0100081B0100081B01000820
:100050001B0100081B0100081B0100081B01000810
:100060001B0100081B0100081B0100081B01000800
:100070001B0100081B0100081B0100081B010008F0
:100080001B0100081B0100081B0100081B010008E0
:100090001B0100081B0100081B0100081B010008D0
:1000A0001B0100081B0100081B0100081B010008C0
:1000B0001B0100081B0100081B0100081B010008B0
:1000C0001B0100081B0100081B0100081B010008A0
:1000D0001B0100081B0100081B0100081B01000890
:1000E0001B0100081B0100081B010008DFF80CD0F1
:1000F00000F0EEF800480047F5020008880D0020E7
:100100000648804706480047FEE7FEE7FEE7FEE7B1
:10011000FEE7FEE7FEE7FEE7FEE7FEE799070008D9
:10012000ED000008EFF3108072B6704780F310887E
:100130007047334A1368012B04D04FF0010313605A
:10014000304A1060304A116030484FF080510160F1
:100150007047EFF3108272B62948016891B14FF0F1
:10016000000101602748016829B1EFF3098121E905
:10017000F00F00680160244909680968B1E8F00FD0
:1001800081F3098882F310884EF0040E70471E49EF
:1001900008601C494FF00000086019494FF0010049
:1001A00008601B484FF47F01D0F8002041EA0201AB
:1001B000016016484FF080510160164800680068E1
:1001C00080F3088861B662B670471EF0040F0CBF5A
:1001D000EFF30880EFF3098020E9F00F40F804ED19
:1001E0001EF0040F0CBF80F3088880F3098800B567
:1001F00001F022FD5DF804EB4EF0040E70470000A4
:10020000340000202C0000203000002004ED00E02D
:1002100020ED00E008ED00E040EA01039B0703D079
:1002200009E008C9121F08C0042AFAD203E011F835
:10023000013B00F8013B521EF9D27047D2B201E0F7
:1002400000F8012B491EFBD270470022F6E710B5DB
:1002500013460A4604461946FFF7F0FF204610BD34
:10026000421E12F8013F002BFBD111F8013B02F8AE
:10027000013B002BF9D1704710B5044604E00B7820
:1002800000F8013B03B1491C521EF8D2204610BDB4
:10029000421C10F8011B0029FBD1801A704703464D
:1002A00011F8012B00F8012B002AF9D118467047EC
:1002B00030B505460020034600E05B1C934205D2A2
:1002C000EC5CC85C201A01D1002CF6D130BD0000D6
:1002D000064C074D06E0E06840F0010394E8070093
:1002E00098471034AC42F6D3FFF704FF282E0008DD
:1002F000482E000810B502F077FB002010BD00006A
:100300002DE9F84FDFF8B891002409F1040A0AF149
:10031000040B23460F270BF1040EC9E00125A5406D
:100320002A40AA427DD1674ED1F804C0ACEB060842
:10033000B44532D014DCBCF1030F3AD009DCBCF177
:10034000000F2AD0BCF1010F1CD0BCF1020F31D13B
:100350001DE0BCF1110F17D0BCF1120F2AD119E02A
:10036000B8F5881F19D006DCB8F5803F15D0B8F570
:10037000801F1FD111E0B8F5001F0ED0B8F5041F83
:1003800018D10AE0CB6815E0CB681B1D12E0CB68E2
:1003900008330FE0CB680C330CE08B682BB1012BDA
:1003A0004FF0080303D0456104E0042302E0056137
:1003B00000E00023FF2A01D8064601E000F1040610
:1003C0004FEA840501D9A5F12005D6F8008007FA87
:1003D00005FC28EA0C0803FA05F548EA0508C6F802
:1003E00000804D68ED0062D5374DAE6946F00106DC
:1003F000AE61AD6924F0030605F001050095334DAB
:1004000006EB050CDCF80850A607360F07FA06F8CD
:1004100025EA0805DFF8B880404503D14FF0000811
:1004200017E044E0DFF8AC80404502D14FF001080E
:100430000FE0DFF8A480404502D14FF0020808E049
:10044000DFF89880404502D14FF0030801E04FF0FB
:10045000040808FA06F848EA0508CCF808804D6850
:10046000D9F80060ED034D4601D5164300E09643F0
:100470002E604D68DAF80060AD03554601D516438D
:1004800000E096432E604D68DBF80060ED025D46AB
:1004900001D5164300E096432E604D68DEF80060FB
:1004A000AD02754601D5164300E096432E60641CEC
:1004B0000D682A46E5407FF431AFBDE8F88F0000B3
:1004C0000004014000001110001002400000014033
:1004D00000080140000C01400010014000140140E0
:1004E0000AB1016170470904FBE700000148806818
:1004F0007047000000000020044805490068496872
:10050000044AC1F30221515CC84070470C0000202E
:10051000001002408A2B0008044805490068496819
:10052000044AC1F3C221515CC84070470C0000204E
:10053000001002408A2B000870B5040004D094F823
:100540003900002510B106E0012070BD84F8385054
:10055000204600F023F8242084F839002068C16880
:1005600021F40051C160204600F03AF92068016989
:1005700021F4904101612068416921F02A01416123
:100580002068C16841F40051C160E563202084F80F
:10059000390084F83A00002070BD00002DE9F043D6
:1005A00085B00025064600950195029503950068E3
:1005B0002849294C294F4FF002084FF0030988427F
:1005C00020D1A06940F48040A061A06900F480407F
:1005D0000490A06940F00400A061A069CDF80C90DF
:1005E00000F0040004904815CDE90008694638463B
:1005F000FFF786FE2015CDE90005694638460295CD
:10060000FFF77EFE16493068884220D1E06940F449
:100610000030E061E06900F400300490A06940F02F
:100620000400A061A069694600F004000490042061
:10063000CDE90008CDF80C903846FFF761FE0820A0
:10064000CDE90005694638460295FFF759FE05B029
:10065000BDE8F0830038014000100240000801406E
:10066000004400402DE9F843044690F839001F4645
:1006700016460D46202850D1A5B19EB194F83800F9
:1006800001284AD0012084F838004FF00008C4F84F
:100690003C80212084F83900FFF728FFA68481469A
:1006A000E68426E00120BDE8F883E08C401EE0846B
:1006B000A0684B46B0F5805F4FF000024FF080011C
:1006C0002046009703D000F0E7F8E8B90DE000F00D
:1006D000E3F8C8B928882168C0F308004860206999
:1006E00008B16D1C05E0AD1C03E0216815F8010B95
:1006F0004860E08C0028D8D14B460022402120469B
:10070000009700F0C9F808B10320CCE7202084F856
:10071000390084F838800020C5E70220C3E710B50F
:1007200001F0A4FB01F032FFBDE8104001F0ACBBCA
:10073000144910B54868144A10F00C03134803D04C
:10074000042B01D0082B09D002604968104AC1F37C
:100750000311515C0268CA40026010BD4A684B68D0
:1007600002F470124FF0020413F4803F04EB924243
:1007700002D04B689B0301D5064B00E0024B5A4365
:10078000E2E700000010024000127A000C00002096
:100790007A2B000800093D000D48016841F0010175
:1007A000016041680B4A1140416001680A4A1140EA
:1007B0000160016821F480210160416821F4FE019B
:1007C00041604FF41F0181600449C0030860704715
:1007D000001002400000FFF8FFFFF6FE08ED00E009
:1007E0002DE9F041044600680169E26821F44051B6
:1007F000114301612169A0680843616908432168C8
:10080000CA6841F20C639A430243CA602068416996
:10081000A26921F44071114341611E492068642599
:100820003226884202D1FFF777FE01E0FFF764FE2F
:1008300000EBC00101EB001160686FF01807800049
:10084000B1FBF0F2B2FBF5F2B1FBF0F37A4303EB4C
:100850008202B1FBF0F306EB0212B2FBF5F2B3FB3E
:10086000F5F302F0F00202EB0312B1FBF0F3B1FB7F
:10087000F0F0B0FBF5F0784303EB800006EB0010DE
:10088000B0FBF5F0216800F00F0010448860BDE86F
:10089000F0810000003801402DE9F04198461746EC
:1008A0000E460446069D1DE0681C1BD02DB1FFF7C7
:1008B0001DFEA0EB0800A84214D92068C16821F4ED
:1008C000D071C1602068416921F00101416120209F
:1008D00084F8390084F83A00002084F838000320B6
:1008E000BDE8F0812068006836EA000004D00020EE
:1008F000B842D9D00020F3E70120F9E7002806D05C
:100900000E4910F0FF0F03D0C0B2085C401C7047C6
:1009100010F47F4F04D0C0F30720085C0930704703
:1009200010F47F0F04D0C0F30740085C113070470B
:1009300001EB10600078193070470000392C000876
:1009400002E008C8121F08C1002AFAD17047704798
:10095000002001E001C1121F002AFBD170470000F6
:1009600003480168814201D0012070470020704790
:100970008C0000202DE9F04F89B092468B46064648
:10098000002400E0641C305D202803D0092801D039
:100990005C45F7D34FF0FF387CB3194804F10609E2
:1009A000184F056811E0062217A12868FFF780FCA0
:1009B00050B9286822463146801DFFF779FC18B9E6
:1009C000296811F8090020B1083538688542EAD352
:1009D00014E06C688CB120216846FFF736FC6A464B
:1009E0005946304600F060FF38B16946A047CAF862
:1009F0000000002009B0BDE8F08FFFE74046F9E7AE
:100A000010000020140000205F5F636D645F000031
:100A10002DE9FC411F460446DDE90831DDE90A65A0
:100A2000143040600060C4E90827C4E90A310A466E
:100A3000232118461C3401F07FFAD4E9030142183F
:100A4000D4E90101104B121F01F0F4F944F81A0B1C
:100A5000002004F801690D4A04F8036BE4E802057C
:100A600044F8105901C404F83C0B01C444F874095B
:100A7000009023460190194604F1440001F0F8FD6E
:100A80000020BDE8FC81000091220008CB24000872
:100A9000F0E905124A60D0E9001211604060006080
:100AA0007047000010B51BA001F0FCF91C4C217828
:100AB0001CA001F0F7F92078C00702D01FA001F0B8
:100AC000F1F92078800702D51FA001F0EBF920781A
:100AD000400702D51FA001F0E5F92078000702D5F4
:100AE00020A001F0DFF92078C00602D520A001F097
:100AF000D9F92078000607D509480F300168BDE80C
:100B000010401DA001F0CEB9BDE810401EA001F0BC
:100B1000C9B90000627573206661756C743A0A0089
:100B200029ED00E05343425F434653525F42465330
:100B3000523A30782530325820000000494255534F
:100B4000455252200000000050524543495345523F
:100B500052200000494D50524543495345525220BE
:100B600000000000554E53544B45525220000000E7
:100B700053544B45525220005343422D3E4246416E
:100B8000523A253038580A000A00000010B500F02B
:100B9000B1FB002010BD0000104810B5416991F86C
:100BA0002110890703D40E490020087013E0016961
:100BB00021B180220A48FFF75FFB0CE000F072FED3
:100BC00008B108A100E009A10548FFF768FB09A1E9
:100BD0000348FFF745FB024810BD0000100000204D
:100BE000A00000206D7368200000000066696E732D
:100BF000682000003E0000000349496911F8212FD8
:100C000060F341020A70704710000020014AC2E9F7
:100C100000017047100000207FB514491448FFF709
:100C2000F5FF154C13480A23A0F58F656061062275
:100C30004FF48061A0F580608DE80F0000230F4A1B
:100C40000FA1783801F0A6FB064600231A460EA134
:100C5000606901F061FA0120FFF7CEFF16B928465E
:100C600001F0FCFB04B0002070BD0000282E00083D
:100C7000B82D00089C05002010000020910C0008F1
:100C8000747368656C6C0000736872780000000013
:100C9000984D686910F8211F41F001010170FFF7BC
:100CA0007BFF01F0FFF8002600F08EFF0400FBD46C
:100CB0001B2C07D0686990F82010012907D0022961
:100CC0000ED017E06969012081F82000ECE75B2C69
:100CD00002D080F820600DE0022180F82010E3E7C8
:100CE00080F82060412CDFD0422CDDD0442C38D05D
:100CF000432C43D0002CD7D0FF2CD5D0092C4ED07C
:100D00007F2C75D0082C73D00D2C70D00A2CFCD001
:100D1000B0F87210502901D3A0F87260B0F87430A6
:100D2000B0F872108B427DD2CA1A00F12201233032
:100D30001944184401F0E6F86869B0F874102230DC
:100D40000C54686990F82110C90706D0B0F87410E7
:100D50002230014468A001F0A5F86869B0F8744039
:100D6000A5E0B0F8740000289ED064A001F09AF8C5
:100D7000686930F8741F491E018095E7B0F8741057
:100D8000B0F8722091428FD22230095C5CA001F051
:100D900089F8696931F8740F401C088084E70024E1
:100DA00003E056A001F07EF8641C6869B0F8740096
:100DB000A042F6DC6C6953A0223401F073F800F015
:100DC00071FD012802D1204600F0AEFCFFF7E4FEE1
:100DD000014622464CA001F065F868692230FFF711
:100DE00057FA696921F8720F48805DE700E03DE03D
:100DF000B0F87420002AC0D0B0F87210521E491EFC
:100E000089B293B2A0F87210A0F87430994224D934
:100E1000CA1A00F1230122301944184401F072F873
:100E2000686900E049E0B0F8721022300E54686939
:100E3000B0F874102230014435A001F033F868692D
:100E4000B0F8744003E02DA001F02CF8641C686930
:100E5000B0F87200A04290DBF5E72FA001F022F875
:100E60006869B0F8721022300E541DE700F01AFDC8
:100E700001280DD1686990F82100C00702D021A097
:100E800001F010F86869B0F87210223000F0A2FC8E
:100E9000FFF782FE01F006F8686950212230FFF763
:100EA000D4F9686922E015A000F0FCFF641C6869B1
:100EB000B0F87200A042F6DC0AE022300C546869F7
:100EC00090F82100C00703D021460DA000F0EAFFF2
:100ED0006869B0F87210491C89B2A0F87210B0F8B5
:100EE0007420521CA0F874205029BED320F8726FD1
:100EF0004680D9E61000002025730000080000009D
:100F0000256300000A00000025732573000000001F
:100F100008257320200800000820080010B5124C96
:100F20002068800702D511A000F0BCFF20684000B7
:100F300011D50D48C01E007808B1FFF7B3FD0A486F
:100F4000001F007808B100F083FB0748801E00886E
:100F500008B101F0A5FD2068002804DABDE81040C2
:100F600008A000F09FBF10BD2CED00E06661696C29
:100F7000656420766563746F722066657463680AC1
:100F8000000000006465627567206576656E740A0E
:100F90000000000010B502A000F084FF002010BD8A
:100FA00048656C6C6F2052542D54687265616421E1
:100FB0000A00000070B50BA000F074FF0E480F4D42
:100FC00004680AE002220EA12068FFF771F918B147
:100FD0000CA0216800F066FF083428688442F1D331
:100FE000002070BD2D2D46756E6374696F6E204CA8
:100FF0006973743A0A0000001000002014000020F9
:101000005F5F000025730A002DE9F04104461E468B
:1010100017460D46084600F0C5FF001D20602572EA
:1010200000206760C4E90360BDE8F0812DE9F0416C
:101030000D4600212961E96891B1297A81B12E68B4
:1010400088B10446FFF76EF80146A4F10C002A7A35
:10105000007A20F08000904209D00846FFF766F839
:101060000020BDE8F0813446FFF75CF8014668686F
:1010700000272468B44201D1002404E010C0EA68CB
:101080007F1CBA42F5D10846FFF750F820462F6181
:10109000E7E700002DE9F04196B000262FA40823D1
:1010A0000CAA052106A8FFF7AFFF082080460146DD
:1010B00022462CA000F0F6FE404600F05DFC32A077
:1010C00000F0F0FE06A93046FFF7B0FF0646002507
:1010D0003BE00CA850F825400C3CFFF723F80146F4
:1010E000207A9DF8202020F080009042084602D00F
:1010F000FFF71CF828E0FFF719F8606904F11407FE
:10110000B842384613D000F0EBFE228C618C00917F
:10111000CDE9012023460822414622A000F0C2FE6C
:10112000384601F077FC25A000F0BCFE0CE000F092
:10113000D7FE218C628CCDE9002102902346082243
:1011400041461FA000F0AEFE6D1C0A98A842C0DC0C
:10115000002EB7D116B00020BDE8F0816D61696C3A
:10116000626F7800252D2A2E7320656E74727920A7
:1011700073697A652073757370656E642074687224
:101180006561640A00000000202D2D2D2D20202DEA
:101190002D2D2D202D2D2D2D2D2D2D2D2D2D2D2D8C
:1011A0002D2D0A00252D2A2E2A7320253034642067
:1011B00020253034642025643A0000000A00000035
:1011C000252D2A2E2A732025303464202025303402
:1011D000642025640A0000002DE9F04194B0002647
:1011E0002CA408230BAA022105A8FFF70DFF082055
:1011F0008046014622462AA000F054FE404600F0F8
:10120000BBFB2EA000F04EFE05A93046FFF70EFFF7
:101210000646002535E00BA850F825400C3CFEF7AB
:1012200081FF217A9DF81C2021F08001914202D09B
:10123000FEF77CFF24E0FEF779FF606904F11407F4
:10124000B842384611D000F04BFEA18BCDE900101A
:101250002346082241461FA000F024FE384601F034
:10126000D9FB15A000F01EFE0AE000F039FEA18BAC
:10127000CDE900102346082241461AA000F012FED4
:101280006D1C0998A842C6DC002EBDD114B0002008
:10129000BDE8F08173656D6170686F726500000074
:1012A000252D2A2E73207620202073757370656E8D
:1012B00064207468726561640A000000202D2D2D81
:1012C000202D2D2D2D2D2D2D2D2D2D2D2D2D2D0A7E
:1012D00000000000252D2A2E2A732025303364209B
:1012E00025643A00252D2A2E2A73202530336420C8
:1012F00025640A002DE9F041B4B000263CA408237F
:101300002CAA012126A8FFF77FFE0820804601466F
:101310002246394800F0C6FD404600F02DFB37A0BC
:1013200000F0C0FD26A93046FFF780FE06460025E6
:1013300054E02CA850F825400C3CFEF7F3FE07467D
:10134000207A9DF8A01020F08000884203D0384613
:10135000FEF7ECFE41E07822214607A8FEF75CFF8D
:101360003846FEF7E3FE94F8350000902346082245
:10137000414632A000F096FD94F8340000F00F00D2
:10138000012807D0022807D040B1042808D003283C
:1013900008D00AE02CA006E02EA004E030A002E075
:1013A00032A000E034A000F07DFDA06A014600E01C
:1013B000401C0278232AFBD0E26A401A101A6423E8
:1013C0005843B0FBF2F3276B206CCDE90007E069CE
:1013D000081A81182BA000F065FD6D1C2A98A84200
:1013E000A7DC002E9ED134B00020BDE8F0810000C3
:1013F00074687265616400005C2D0008202D2D2D3D
:1014000020202D2D2D2D2D2D2D202D2D2D2D2D2D33
:101410002D2D2D2D202D2D2D2D2D2D2D2D2D2D2016
:10142000202D2D2D2D2D2D20202D2D2D2D2D2D2D13
:101430002D2D2D202D2D2D0A00000000252D2A2ECA
:101440002A7320253364200020726561647920208E
:10145000000000002073757370656E64000000006A
:1014600020696E69742020200000000020636C6FEA
:1014700073652020000000002072756E6E696E6733
:101480000000000020307825303878203078253072
:101490003878202020202530326425252020203057
:1014A000782530387820253033640A00F0B593B0C1
:1014B000002626A408230BAA0A2104A8FFF7A4FDEE
:1014C00008272246394623A000F0ECFC384600F0FD
:1014D00053FA2AA000F0E6FC04A93046FFF7A6FD67
:1014E0000646002524E00BA850F825400C3CFEF7EA
:1014F00019FE217A9DF8182021F08001914202D036
:10150000FEF714FE13E0FEF711FED4E90901CDE960
:10151000000123460822394621A000F0C3FC607A6E
:10152000C00701D024A000E026A000F0BBFC6D1C89
:101530000898A842D7DC002ECED101F021F8014650
:1015400024A000F0AFFC13B00020F0BD74696D65FD
:1015500072000000252D2A2E732020706572696F9D
:1015600064696320202074696D656F757420202084
:1015700020202020666C61670A000000202D2D2DA0
:101580002D2D2D2D2D2D2D202D2D2D2D2D2D2D2D98
:101590002D2D202D2D2D2D2D2D2D2D2D2D2D0A00D8
:1015A000252D2A2E2A73203078253038782030785F
:1015B00025303878200000006163746976617465B5
:1015C000640A000064656163746976617465640A25
:1015D0000000000063757272656E74207469636B3D
:1015E0003A3078253038780A0000000086B00024B0
:1015F00011480094019402940394816941F004011C
:10160000816180690D4D00F0040004902246202184
:101610002846FEF765FF202000900120CDE9010457
:101620000220039069462846FEF76AFE4FF4FA74DA
:10163000204600F0C7FEFBE7001002400008014012
:1016400010B500F069FABDE81040FFF7CFBF000009
:1016500010B518A000F026FC1B4C21781BA000F050
:1016600021FC2078C00702D01EA000F01BFC2078CF
:10167000800702D51EA000F015FC2078000702D5D7
:101680001EA000F00FFC2078C00602D51EA000F0BE
:1016900009FC2078000607D50B480C300168BDE82E
:1016A00010401CA000F0FEBBBDE810401D4800F03B
:1016B000F9BB00006D656D206D616E616765206628
:1016C00061756C743A0A000028ED00E05343425FF4
:1016D000434653525F4D4653523A30782530325884
:1016E000200000004941434356494F4C2000000070
:1016F0004441434356494F4C200000004D554E5342
:10170000544B4552522000004D53544B45525220E9
:10171000000000005343422D3E4D4D41523A2530CA
:1017200038580A00102B00082DE9F04780460025A4
:1017300000782C4618B12248224F066831E0BDE8F7
:10174000F0470021084600F077B806221EA1306855
:10175000FEF7AEFD20BB306800F106094046FEF7FB
:1017600097FD024649464046FEF7A2FDC0B925B99D
:101770004C464846FEF78CFD05464946204601E0AA
:10178000401C491C02781AB10B780BB19A42F7D071
:10179000001BA84200DA054649460DA000F082FB76
:1017A000083638688642D0D3002C06D02A46214617
:1017B0004046BDE8F04700F021BDBDE8F0870000DD
:1017C00010000020140000205F5F636D645F000064
:1017D00025730A0038B5044601E0491E641C2078D0
:1017E0002028FAD00928F8D031B16A462046FFF700
:1017F000C1F818B1204604E0002038BD009838BD7B
:10180000401C0178202901D00029F9D10021017064
:10181000214603A000F046FB4FF0FF3038BD00002A
:1018200025733A20636F6D6D616E64206E6F742056
:10183000666F756E642E0A0070B50DA000F032FB65
:101840001248134D04680BE0062212A12068FEF72F
:101850002FFD20B9216811A0891D00F023FB083459
:1018600028688442F0D30EA000F01CFB002070BD5D
:1018700052542D546872656164207368656C6C20E5
:10188000636F6D6D616E64733A0A00001000002092
:10189000140000205F5F636D645F0000257320000B
:1018A0000A0000000120704770B5002315461C4651
:1018B0001A464BE000F8012B5B1C0678202E01D065
:1018C000092E01D18B42F5D3082C11D321A000F0B1
:1018D000E9FA002606E000BF55F8261025A000F022
:1018E000E1FA761CA642F7D321A000F0DBFA2FE044
:1018F0008B422DD2F6B2222E03D045F82400641C70
:101900001BE0401C45F824005B1C641C08E05C2EB6
:1019100004D14678222E01D1401C5B1C401C5B1C6C
:101920000678222E01D08B42F1D38B4210D200F8E0
:10193000012B5B1C0AE0401C5B1C0678202E03D0A8
:10194000092E01D08B42F6D38B4201D28B42B4D305
:10195000204670BD546F6F206D616E792061726793
:10196000732021205765206F6E6C79205573653A7E
:101970000A0000002573200010B5044602E003A011
:1019800000F090FA641EFAD210BD00002D00000095
:101990002DE9F04F85B09946DDE90EA5109CAB46C8
:1019A000630602D5DFF814C103E0DFF810C1ACF123
:1019B000110CE30601D524F00104E30701D0302324
:1019C00000E0202300260493A3070BD5002A02DAA7
:1019D0002D26524206E0630701D52B2602E023079D
:1019E00000D520260023EE4622B930228DF80020B3
:1019F00001230CE0B9F10A0F14D002F00F0812090C
:101A00001CF808800EF803805B1C002AF2D1AB4260
:101A100000DD1D46AAEB050214F0110F4FF0200760
:101A200008D015E00A27B2FBF7F807FB1828B2FB2D
:101A3000F7F2E5E73EB1002A05DD521E03E08842D9
:101A400000D20770401CB2F1000CA2F10102F6DCDA
:101A500026B1884200D20670401C521EE40605D50D
:101A600008E0884201D2049C0470401C141EA2F1BC
:101A70000102F6DC30242E466D1E9E420ADD8842AD
:101A800000D20470401CF6E7884201D2E55C057084
:101A9000401C00E074461D1EA3F1010307DDBBF1ED
:101AA000000FF1D103E0884200D20770401C131EE2
:101AB000A2F10102F7DC05B0BDE8F08F4A2D000865
:101AC0001FB50A4C02221423D101A4F580708DE8C1
:101AD0000F000023064A07A1204600F05BFC04B07B
:101AE0002046BDE8104000F0B9BC000018070020F7
:101AF000411600086D61696E0000000070B5044C6D
:101B0000044D02E020688047241DAC42FAD370BD2A
:101B1000A42D0008AC2D000870B5044C044D02E063
:101B200020688047241DAC42FAD370BDAC2D00085C
:101B3000B42D000810B5FEF7F5FA044A5188491C87
:101B40005180BDE81040FEF7F1BA0000800000208F
:101B500010B5FEF7E7FA0B4C6188491E09B26180A7
:101B600000290ADC00216180FEF7E0FA60680028A5
:101B700007D0BDE8104000F057BABDE81040FEF7AE
:101B8000D5BA10BD8000002010B5FEF7D1FD0C487D
:101B90004FF47A710068B0FBF1F0401EB0F1807F25
:101BA00009D24FF0E021074A4861FF201070002061
:101BB000886107200861BDE81040FFF79FBF000063
:101BC0000C00002023ED00E0084810B500684FF03D
:101BD000FF340168C943890602D44068C4B202E0F8
:101BE0000A2000F0EFFBE0B210BD00004809002021
:101BF000F8B506460D200F498DF80000002481F845
:101C00003840304600F0F2FA05460FE0305D0A2811
:101C100005D101231A4669460648FEF723FD012334
:101C200031191A460348FEF71DFD641CAC42EDD382
:101C3000F8BD00004809002070B50546041D2D4878
:101C4000016819B128468847002851D02AA0E16BC5
:101C500000F028F92CA0216A00F024F92EA0616A76
:101C600000F020F930A0A16A00F01CF932A0E16A6E
:101C700000F018F934A0216800F014F936A061686A
:101C800000F010F938A0A16800F00CF93AA0E16862
:101C900000F008F93CA0216900F004F93EA0616958
:101CA00000F000F940A0A16900F0FCF842A0E16951
:101CB00000F0F8F844A0216B00F0F4F846A0616B46
:101CC00000F0F0F848A0A16B00F0ECF8287840078D
:101CD00008D500F09DFB014647A000F0E3F8FFF7B0
:101CE00009FB02E04CA000F0DDF8FFF717F9FEE772
:101CF00070BD0000280000207073723A20307825F3
:101D00003038780A000000007230303A20307825F0
:101D10003038780A000000007230313A20307825DF
:101D20003038780A000000007230323A20307825CE
:101D30003038780A000000007230333A20307825BD
:101D40003038780A000000007230343A20307825AC
:101D50003038780A000000007230353A203078259B
:101D60003038780A000000007230363A203078258A
:101D70003038780A000000007230373A2030782579
:101D80003038780A000000007230383A2030782568
:101D90003038780A000000007230393A2030782557
:101DA0003038780A000000007231303A203078254F
:101DB0003038780A000000007231313A203078253E
:101DC0003038780A000000007231323A203078252D
:101DD0003038780A00000000206C723A20307825F4
:101DE0003038780A000000002070633A20307825EF
:101DF0003038780A000000006861726420666175FE
:101E00006C74206F6E207468726561643A2025736B
:101E10000D0A0D0A00000000686172642066617599
:101E20006C74206F6E2068616E646C65720D0A0DB3
:101E30000A00000070B50446121D22F007000022BF
:101E4000094D403840F82250521C102AFAD3016242
:101E50000021416281624FF0807200F13005C2635F
:101E6000C16285E81A0070BDEFBEADDE10B5FEF7A9
:101E700059F9044A1178491C1170BDE81040FEF769
:101E800055B900003C00002010B5FEF74BF9044A9C
:101E90001178491E1170BDE81040FEF747B90000E7
:101EA0003C0000200FB47F2110B503AB0448029A18
:101EB00000F054FC0248FFF79BFE10BC5DF814FBD9
:101EC000880800200268516002680A60016048606A
:101ED00070470268516002680A600160486070479C
:101EE0000246002100E0491C00689042FBD10846F0
:101EF0007047D0E900124A60D0E9001211604060DA
:101F00000060704710B50346994211D28C189C426C
:101F10000ED9811804E000BF14F8013D01F8013D1D
:101F2000521EF9D210BD00BF11F8014B03F8014B4E
:101F3000521EF9D210BD000010B50346CCB2042ADF
:101F40001AD3810718D1194644EA042343EA03430C
:101F500006E008C1103A08C141F8083B41F8043CCA
:101F6000102AF6D201E008C1121F042AFBD20B4648
:101F700002E000BF03F8014B521EFBD210BD10B5AA
:101F8000044600202072FEF7CDF8F4E903124A60FF
:101F9000D4E90012116064602460BDE81040FEF7CF
:101FA000C5B80000074A002102EB01131B788342E9
:101FB00002D102EB01107047491C0429F4DB002018
:101FC00070470000400000202DE9F041054617460B
:101FD0000E460846FFF7E6FF0446FFF7ABFD211D5E
:101FE000606800E000688842FCD1FFF7B1FD46F070
:101FF0008000287208223946284600F0FFF8FEF7D4
:1020000091F854F8041F0C354D6021682960256053
:102010006C60BDE8F041FEF789B8007A000601D592
:10202000012070470020704770B5FEF77BF8114C17
:1020300005466088B0B9A068FEF760FC0E49401EF6
:10204000626851F83010143991420BD020700B485F
:102050006160007801F11C01002802F11C0006D02B
:10206000FEF767F82846BDE87040FEF75FB8FEF758
:1020700060F8F7E780000020080900203C000020FD
:1020800010B50446FEF74EF8024694F834000E49A7
:1020900020F00F00401C84F8340094F8350001EB68
:1020A000C00104F114004B6818604B68A3614860DC
:1020B00006486161A16B836819438160BDE81040E7
:1020C0001046FEF733B80000080900208000002009
:1020D00010B50446FEF726F804F11401D1E90023F7
:1020E0005360D1E900231A60A161616194F8352041
:1020F000074951F8323001EBC2018B4204D1054946
:10210000A36B8A689A438A60BDE81040FEF70EB858
:1021100008090020800000202DE9F04116460A46FB
:102120001F4605460221FFF74FFF05F11404AC617D
:102130006C61AE836F720020BDE8F08108B509A024
:10214000FFF7B0FE0AA0FFF7ADFE12A00323009038
:102150000122194612A0FFF7A5FEBDE8084018A00D
:10216000FFF7A0BE0A205C207C202F0A00000000A0
:102170002D205254202D202020202054687265618B
:1021800064204F7065726174696E6720537973744F
:10219000656D0A00446563203130203230313900EA
:1021A000202F207C205C202020202025642E2564E8
:1021B0002E2564206275696C642025730A00000076
:1021C0002032303036202D203230313920436F70AC
:1021D0007972696768742062792072742D746872EC
:1021E000656164207465616D0A000000014600E0CD
:1021F000491C0A78002AFBD1081A704710B5002A3A
:1022000007D0034611F8014B03F8014B2CB1521EC5
:10221000F8D110BD03F8011B00E00021521EF9D1D6
:1022200010BD000010B50A4900230A4C4B80184627
:1022300004EBC002401C526012600828F8DB072043
:10224000087003484B600C308B604060006010BD2C
:10225000800000200809002010B5074CA068FEF798
:102260004DFB0649401E51F8300014386060BDE84F
:1022700010401C30FDF78BBF8000002008090020B3
:1022800001484060006070479800002070470000DF
:1022900070B513480468FDF745FF05462046FFF773
:1022A00017FF042084F8340004F1440000F0D0F952
:1022B0002046FFF7B2FE012801D1206F58B104F18A
:1022C00014010848FFF7FEFD2846FDF72FFFBDE883
:1022D0007040FFF7A9BE2046FFF751FEF4E700006B
:1022E000840000208C00002000F002F8FCE70000D1
:1022F00070B521E0FDF716FF0546FEF731FB28B368
:1023000015480168A1F11404D1E900024260D1E945
:102310000002106049600960FFF70CFC216F09B1F1
:10232000204688472046FFF778FE012809D0FFF7AE
:102330000FFC2846FDF7FAFEFEF712FB0028D9D164
:1023400070BD2046FFF71BFEFFF702FC2846BDE8E4
:102350007040FDF7EBBE00008C0000201FB509485F
:102360002023072280218DE80F000023064A07A1C1
:10237000783800F00FF804B00248BDE81040783813
:1023800000F06CB808080020E92200087469646C49
:10239000650000002DE9FF5F92460EAA0C4692E808
:1023A000E0010A46994683460121FFF70DFE8DE8BC
:1023B000E0014B46524621465846FEF729FB04B041
:1023C000BDE8F09F10B500F0C1F8BDE8104000F086
:1023D00025B870B5044690F8340000F00F000228CC
:1023E00002D04FF0FF3070BDFDF79CFE054604F1B2
:1023F0001400FFF77EFD04F1440000F097F9284631
:10240000FDF794FE2046FFF73BFE002070BD000064
:10241000014800687047000084000020F1B5FDF716
:1024200081FE05460C480468204600F02DF804F1B2
:1024300044006A460021064600F0F2F8304600F0FB
:102440002FF92846FDF772FEFFF7EEFD206B801C8A
:1024500000D120630020F8BD8400002010B590F862
:102460003610012280F835108A400221826380F8FC
:102470003410FFF7AEFF0348006808B1FFF7D4FD42
:10248000002010BD8400002070B5044690F8340090
:1024900000F00F00012802D04FF0FF3070BDFDF7B3
:1024A00041FE054694F8340020F00F00801C84F8AB
:1024B00034002046FFF70CFE04F1440000F036F92A
:1024C0002846FDF733FE002070BD10B504466FF0BE
:1024D0000100206304F11400FFF70BFD2046FFF715
:1024E000CFFDBDE81040FFF79FBD000070B5FDF7C0
:1024F00019FE06461348046894F8340000F00F00F3
:10250000012819D1D4E90501884215D004F114003D
:102510000546FFF7EEFC94F835000B4901EBC000CF
:1025200041680D6041686960456028603046FDF78C
:10253000FDFDFFF779FD02E03046FDF7F7FD0020D5
:1025400070BD00008400002008090020002802DA85
:102550004FF0FF3070474FF47A7190FBF1F290FB2F
:10256000F1F301FB130000EB40034A43C3EBC0103F
:102570004B1E03EBC00090FBF1F0104470470000CD
:10258000014800687047000038000020094810B575
:102590000168491C0160FFF73BFF016C491E0164A3
:1025A00003D1C16B0164FFF7A1FFBDE8104000F04B
:1025B00003B80000380000202DE9F041FFF7E0FFEC
:1025C0000646FDF7AFFD0746144D1EE060696FF04B
:1025D0000041301A143C88421AD22046FEF758FABD
:1025E000D4E907108847FFF7CBFF0646607A8107DA
:1025F00008D5C10706D020F001006072204600F027
:102600004FF802E020F0010060722C68AC42DDD18E
:102610003846BDE8F041FDF789BD00009800002074
:1026200049B1012904D0022908D003290ED109E0BB
:10263000406A10600AE01168416207E0417A21F0C7
:10264000020102E0417A41F002014172002070472C
:1026500070B50546FDF766FD04462846FEF718FAF4
:102660002046FDF763FD2846FFF789FC002070BD7A
:102670002DE9F0411746DDE906580A461E46044694
:102680000A21FFF7A1FC28F0010161720021C4E9D1
:102690000951C4E90776143464602460BDE8F08110
:1026A000F8B50446FDF73EFD05462046FEF7F0F975
:1026B000607A20F0010060722846FDF737FDFFF7D1
:1026C0005FFF616A0844A062FDF72CFD0546164ACB
:1026D0000020009202EBC002694653686FF0004C84
:1026E0005DF820200BE01268A2EBC0067769A66AAD
:1026F000B74202D0BE1B664503D341F820209A4260
:10270000F1D10948001F0168491C016004F114015E
:102710000098FFF7DEFB607A40F001006072284607
:10272000FDF704FD0020F8BD9800002070B50446B8
:10273000407AC0070ED0FDF7F5FC05462046FEF7AF
:10274000A7F92846FDF7F2FC607A20F001006072DC
:10275000002070BD4FF0FF3070BD00002DE9FF4F2D
:102760008946044600EB090783B080464FF0FF3AE4
:102770004FF0200BA74202D25746C8F1FF3907E1BC
:10278000252803D0BC4200D2207081E000260599A4
:10279000491C059108782D2811D02B2812D020280B
:1027A00013D0232814D0302815D00A785546303A53
:1027B0000A2A13D205A800F045F905461AE046F0AA
:1027C0001006E4E746F00406E1E746F00806DEE717
:1027D00046F02006DBE746F00106D8E72A2809D1B3
:1027E0000698491C059120C80690002D02DA6D421A
:1027F00046F01006CDF800A0059801782E2918D1D2
:10280000401C05900178A1F130020A2A04D205A8E3
:1028100000F018F9009008E02A2908D1401C059022
:10282000069802C8069000910846002801DA0020A8
:102830000090059800210278682A01D06C2A02D104
:10284000401C1146059000780A236F287DD00CDCCF
:1028500063281FD004DC25287BD058280DD17EE0CA
:10286000642801D0692808D17DE070285ED07328E3
:102870002CD0752879D0782873D0BC4201D225207D
:1028800020700598641C0178D1B3BC4200D221703D
:10289000641C7AE0F00608D458466D1E002D04DD55
:1028A000BC4200D22070641CF7E70699BC4211F8C4
:1028B000040B069100D22070584602E0BC4200D2C0
:1028C0002070641C6D1E002DF8DC5EE0069808C8C0
:1028D000069003B93EA31846FFF788FC009900292B
:1028E00002DD884200DD0846F1060AD459462A4630
:1028F0006D1E824205DDBC4200D22170641CF6E7E9
:1029000052E0002106E0BC4201D21A782270491C34
:102910005B1C641C8142F6DB5A4629466D1E8142CF
:1029200033DDBC4200D22270641CF6E7681C02D181
:10293000082546F0010600980296CDE90050069859
:102940001023394604C806901BE006E001E00CE0C5
:1029500007E0BC429CD2252016E7082305E046F09C
:102960004006102301E046F002066C2901D06829D8
:102970001DD0069804C8069000983946CDE900504D
:1029800002962046FFF704F804460598401C05907F
:102990000598007800287FF4F3AEB9F1000F11D04C
:1029A000BC420DD220700DE0401E0590EDE7069868
:1029B00030F8041B06908AB2B007DDD512B2DBE70F
:1029C00007F8010C07B0A4EB0800BDE8F08F000089
:1029D000284E554C4C2900000020704700207047BD
:1029E000002070470020704710B5FDF79BFBFFF7F4
:1029F000CBF8FFF7A3FBFFF743FCFFF713FCFFF750
:102A00005FF8FFF743FCFFF7A9FCFFF725FC002068
:102A100010BD000070B5054604680BE0A4F1140178
:102A200006A0FFF73FFA2068A84202D004A0FFF7F3
:102A300039FA2468AC42F1D170BD00002573000062
:102A40002F00000010B5014600206FF02F0307E0B3
:102A5000541C0C60127800EB800003EB4000104423
:102A60000A681478303C0A2CF2D310BD0B4810B51C
:102A7000094901604FF4E1314160002181600C227D
:102A8000C160C0E904128161C161FDF755FD0028F4
:102A900000D0FEE710BD00000038014048090020CA
:102AA00010B518A0FFF7FEF91A4C21881AA0FFF7FD
:102AB000F9F92088C00702D01DA0FFF7F3F920889C
:102AC000800702D51DA0FFF7EDF92088400702D549
:102AD0001DA0FFF7E7F92088000702D51CA0FFF72B
:102AE000E1F92088C00502D51BA0FFF7DBF920889B
:102AF000800502D51BA0FFF7D5F9BDE8104004A062
:102B0000FFF7D0B97573616765206661756C743ABB
:102B10000A0000002AED00E05343425F434653524F
:102B20005F554653523A3078253032582000000025
:102B3000554E444546494E5354522000494E565333
:102B40005441544520000000494E56504320000097
:102B50004E4F435020000000554E414C49474E45D2
:102B60004420000044495642595A45524F20000023
:102B700010B5FFF7E3FA002010BD000000000000D0
:102B8000000001020304060708090000000001021A
:102B9000030468656C6C6F0076657273696F6E0014
:102BA0005F5F636D645F76657273696F6E006C69F9
:102BB00073745F746872656164005F5F636D645F06
:102BC0006C6973745F746872656164006C697374B6
:102BD0005F73656D005F5F636D645F6C6973745FE5
:102BE00073656D006C6973745F6D61696C626F7899
:102BF000005F5F636D645F6C6973745F6D61696CC6
:102C0000626F78006C6973745F74696D6572005FE0
:102C10005F636D645F6C6973745F74696D65720086
:102C20006C697374005F5F636D645F68656C7000EE
:102C30005F5F636D645F707300000001000200015C
:102C40000003000100020001000400010002000175
:102C50000003000100020001000500010002000164
:102C60000003000100020001000400010002000155
:102C70000003000100020001000600010002000143
:102C80000003000100020001000400010002000135
:102C90000003000100020001000500010002000124
:102CA0000003000100020001000400010002000115
:102CB0000003000100020001000700010002000102
:102CC00000030001000200010004000100020001F5
:102CD00000030001000200010005000100020001E4
:102CE00000030001000200010004000100020001D5
:102CF00000030001000200010006000100020001C3
:102D000000030001000200010004000100020001B4
:102D100000030001000200010005000100020001A3
:102D20000003000100020001000400010002000194
:102D30000003000100020001003031323334353627
:102D40003738396162636465660030313233343557
:102D5000363738394142434445460000252D2A2E56
:102D60007320707269202073746174757320202041
:102D700020202073702020202020737461636B203A
:102D800073697A65206D61782075736564206C6560
:102D90006674207469636B20206572726F720A001A
:102DA000E5290008DD2900086D2A0008D929000856
:102DB000190C0008E1290008922B0008950F000863
:102DC000982B0008712B0008A02B0008712B00081D
:102DD000AE2B0008F5120008BA2B0008F512000807
:102DE000CC2B0008D9110008D52B0008D9110008F8
:102DF000E42B000895100008F12B0008951000083E
:102E0000042C0008AD1400080F2C0008AD140008B5
:102E1000202C0008B50F0008252C000839180008E0
:102E2000302C00088D0B0008482E00080000002000
:102E3000A000000040090008E82E0008A0000020C3
:102E4000E80C00005009000801000000100000001C
:102E5000000000000024F40000000000000000005A
:102E60000000000000000000000000000000000062
:102E70000000000000000000000000000000000052
:102E800000000000000000000100000044000020DD
:102E900044000020780000000200000054000020E0
:102EA0005400002020000000050000006400002005
:102EB00064000020300000000A00000074000020C0
:102EC000740000202C000000000000000000000042
:102ED00000000000000000000000000000000000F2
:082EE0000000000000000000EA
:04000005080000ED02
:00000001FF
