:020000040800F2
:10000000100500200101000809010008CB010008CB
:100010000D0100080F010008110100080000000098
:1000200000000000000000000000000013010008B4
:100030001501000800000000530100085B030008E0
:100040001B0100081B0100081B0100081B01000820
:100050001B0100081B0100081B0100081B01000810
:100060001B0100081B0100081B0100081B01000800
:100070001B0100081B0100081B0100081B010008F0
:100080001B0100081B0100081B0100081B010008E0
:100090001B0100081B0100081B0100081B010008D0
:1000A0001B0100081B0100081B0100081B010008C0
:1000B0001B0100081B0100081B0100081B010008B0
:1000C0001B0100081B0100081B0100081B010008A0
:1000D0001B0100081B0100081B0100081B01000890
:1000E0001B0100081B0100081B010008DFF80CD0F1
:1000F00000F0A4F800480047610200081005002045
:100100000648804706480047FEE7FEE7FEE7FEE7B1
:10011000FEE7FEE7FEE7FEE7FEE7FEE7D5030008A1
:10012000ED000008EFF3108072B6704780F310887E
:100130007047334A1368012B04D04FF0010313605A
:10014000304A1060304A116030484FF080510160F1
:100150007047EFF3108272B62948016891B14FF0F1
:10016000000101602748016829B1EFF3098121E905
:10017000F00F00680160244909680968B1E8F00FD0
:1001800081F3098882F310884EF0040E70471E49EF
:1001900008601C494FF00000086019494FF0010049
:1001A00008601B484FF47F01D0F8002041EA0201AB
:1001B000016016484FF080510160164800680068E1
:1001C00080F3088861B662B670471EF0040F0CBF5A
:1001D000EFF30880EFF3098020E9F00F40F804ED19
:1001E0001EF0040F0CBF80F3088880F3098800B567
:1001F00000F052FA5DF804EB4EF0040E7047000078
:1002000010000020080000200C00002004ED00E099
:1002100020ED00E008ED00E0D2B201E000F8012B93
:10022000491EFBD270470022F6E710B513460A4676
:1002300004461946FFF7F0FF204610BD064C074D57
:1002400006E0E06840F0010394E8070098471034A6
:10025000AC42F6D3FFF74EFF0C1000082C1000083C
:1002600010B500F01CFE002010BDF0B50A68C2F306
:100270000F2595FAA5F2B2FA82F369E001229A40BD
:100280002A4264D0082B03D240F201129A4006E0C1
:10029000A3F108024FF00114944044F0806292FAF6
:1002A000A2F700EB1264B7FA87F74FEA870C0F2723
:1002B000266807FA0CF7BE4392FAA2F7D1F804E0D9
:1002C000B7FA87F7BF000EFA07FE46EA0E06266069
:1002D0000E69C7684FEA122C9CFAACFCBCFA8CFC85
:1002E00027EA122706FA0CF63743C7604E68012E3C
:1002F00001D0092E2BD192FAA2F7B7FA87F74FEA6D
:10030000870C032707FA0CF72668D1F808E0BE43EC
:1003100092FAA2F7B7FA87F7BF000EFA07FE92FA31
:10032000A2FC46EA0E06BCFA8CFC4FEA8C0E4FF09B
:10033000040C26600CFA0EFC92FAA2F2B2FA82F2D7
:10034000CF68920026EA0C0697403E4326605B1C6D
:1003500035FA03F292D10020F0BD10B500F0C4F9D7
:1003600000F0AEFCBDE8104000F0CCB9144910B567
:100370004868144A10F00C03134803D0042B01D032
:10038000082B09D002604968104AC1F30311515C7F
:100390000268CA40026010BD4A684B6802F47012DD
:1003A0004FF0020413F4803F04EB924202D04B68FA
:1003B0009B0301D5064B00E0024B5A43E2E70000E5
:1003C0000010024000127A0000000020C80E000851
:1003D00000093D000D48016841F0010101604168DC
:1003E0000B4A1140416001680A4A114001600168EE
:1003F00021F480210160416821F4FE0141604FF445
:100400001F0181600449C00308607047001002406A
:100410000000FFF8FFFFF6FE08ED00E0002806D020
:100420000E4910F0FF0F03D0C0B2085C401C7047AB
:1004300010F47F4F04D0C0F30720085C09307047E8
:1004400010F47F0F04D0C0F30740085C11307047F0
:1004500001EB10600078193070470000D80E0008DA
:1004600002E008C8121F08C1002AFAD1704770477D
:10047000002001E001C1121F002AFBD170470000DB
:1004800003480168814201D0012070470020704775
:10049000480000202DE9FC411F460446DDE90831F3
:1004A000DDE90A65143040600060C4E90827C4E94A
:1004B0000A310A46232118461C3400F049F9D4E9D0
:1004C00003014218D4E90101104B121F00F0F0F8AB
:1004D00044F81A0B002004F801690D4A04F8036B74
:1004E000E4E8020544F8105901C404F83C0B01C4C7
:1004F00044F87409009023460190194604F1440021
:1005000000F050FC0020BDE8FC810000C509000897
:10051000FF0B0008F0E905124A60D0E900121160F3
:10052000406000607047000086B014216846FFF705
:100530007AFE1148816941F00401816180690F4DA3
:1005400000F00400059042F220000090012001908C
:10055000022002900020039069462846FFF785FE9E
:1005600020244FF4FA762C61304600F0C5FA6C6115
:10057000304600F0C1FAF6E70010024000080140E2
:1005800010B500F031F8BDE81040FFF7CDBF000016
:100590001FB50A4C02221423D101A4F580708DE806
:1005A0000F000023064A07A1204600F08DFA04B090
:1005B0002046BDE8104000F0EBBA000060010020CA
:1005C000810500086D61696E0000000070B5044C83
:1005D000044D02E020688047241DAC42FAD370BD70
:1005E000001000080410000870B5044C044D02E02F
:1005F00020688047241DAC42FAD370BD0410000867
:100600000810000810B5FFF78DFD044A5188491CF9
:100610005180BDE81040FFF789BD00003C0000207C
:1006200010B5FFF77FFD0B4C6188491E09B2618050
:1006300000290ADC00216180FFF778FD606800284E
:1006400007D0BDE8104000F0FBB8BDE81040FFF750
:100650006DBD10BD3C00002010B5FFF787FE0C48B3
:100660004FF47A710068B0FBF1F0401EB0F1807F6A
:1006700009D24FF0E021074A4861FF2010700020A6
:10068000886107200861BDE81040FFF79FBF0000A8
:100690000000002023ED00E0044910B5096811B105
:1006A0008847002800D0FEE710BD000004000020AD
:1006B00070B50446121D22F007000022094D403893
:1006C00040F82250521C102AFAD3016200214162E4
:1006D00081624FF0807200F13005C263C16285E82B
:1006E0001A0070BDEFBEADDE10B5FFF71BFD044A6A
:1006F0001178491C1170BDE81040FFF717BD0000CC
:100700001800002010B5FFF70DFD044A1178491EAE
:100710001170BDE81040FFF709BD0000180000206F
:100720000268516002680A600160486070470268B0
:10073000516002680A60016048607047D0E90012A9
:100740004A60D0E90012116040600060704700000C
:1007500010B50346CCB2042A1AD3810718D1194622
:1007600044EA042343EA034306E008C1103A08C1FF
:1007700041F8083B41F8043C102AF6D201E008C1D8
:10078000121F042AFBD20B4602E000BF03F8014B04
:10079000521EFBD210BD10B5044600202072FFF798
:1007A000C1FCF4E903124A60D4E9001211606460EC
:1007B0002460BDE81040FFF7B9BC0000074A0021E3
:1007C00002EB01131B78834202D102EB0110704748
:1007D000491C0229F4DB0020704700001C000020A7
:1007E0002DE9F041054617460E460846FFF7E6FF9D
:1007F0000446FFF707FF211D606800E0006888429B
:10080000FCD1FFF70DFF46F0800028720822394620
:10081000284600F08EF8FFF785FC54F8041F0C35CD
:100820004D602168296025606C60BDE8F041FFF7EC
:100830007DBC007A000601D501207047002070477A
:1008400070B5FFF76FFC114C05466088B0B9A06821
:10085000FFF7E4FD0E49401E626851F8301014396C
:1008600091420BD020700B486160007801F11C01AF
:10087000002802F11C0006D0FFF75BFC2846BDE80B
:100880007040FFF753BCFFF754FCF7E73C00002033
:10089000D00200201800002010B50446FFF742FCEB
:1008A000024694F834000E4920F00F00401C84F8F2
:1008B000340094F8350001EBC00104F114004B68DA
:1008C00018604B68A361486006486161A16B83684A
:1008D00019438160BDE810401046FFF727BC0000B7
:1008E000D00200203C00002010B50446FFF71AFC9F
:1008F00004F11401D1E900235360D1E900231A6007
:10090000A161616194F83520074951F8323001EB5B
:10091000C2018B4204D10549A36B8A689A438A605D
:10092000BDE81040FFF702BCD00200203C000020D0
:10093000704710B5002A07D0034611F8014B03F8A1
:10094000014B2CB1521EF8D110BD03F8011B00E081
:100950000021521EF9D110BD10B50A4900230A4CDE
:100960004B80184604EBC002401C526012600828FD
:10097000F8DB0720087003484B600C308B60406048
:10098000006010BD3C000020D002002010B5074CD4
:10099000A068FFF743FD0649401E51F830001438A7
:1009A0006060BDE810401C30FFF7F1BB3C00002048
:1009B000D0020020014840600060704754000020D1
:1009C0007047000070B513480468FFF7ABFB05469D
:1009D0002046FFF789FF042084F8340004F1440026
:1009E00000F0D0F92046FFF724FF012801D1206F45
:1009F00058B104F114010848FFF792FE2846FFF7AA
:100A000095FBBDE87040FFF71BBF2046FFF7C3FE14
:100A1000F4E70000400000204800002000F002F849
:100A2000FCE7000070B521E0FFF77CFB0546FFF70F
:100A300027FD28B315480168A1F11404D1E900028B
:100A40004260D1E90002106049600960FFF7DAFDF9
:100A5000216F09B1204688472046FFF7EAFE0128AA
:100A600009D0FFF7DDFD2846FFF760FBFFF708FD23
:100A70000028D9D170BD2046FFF78DFEFFF7D0FDCD
:100A80002846BDE87040FFF751BB00004800002039
:100A90001FB509482023072280218DE80F0000237D
:100AA000064A07A1783800F00FF804B00248BDE804
:100AB0001040783800F06CB8500200201D0A000881
:100AC0007469646C650000002DE9FF5F92460EAA10
:100AD0000C4692E8E0010A46994683460121FFF759
:100AE0007FFE8DE8E0014B46524621465846FFF70F
:100AF000D1FC04B0BDE8F09F10B500F0C1F8BDE82E
:100B0000104000F025B870B5044690F8340000F0AD
:100B10000F00022802D04FF0FF3070BDFFF702FB3C
:100B2000054604F11400FFF709FE04F1440000F04B
:100B300097F92846FFF7FAFA2046FFF7ADFE0020A6
:100B400070BD0000014800687047000040000020B0
:100B5000F1B5FFF7E7FA05460C480468204600F0B7
:100B60002DF804F144006A460021064600F0F2F830
:100B7000304600F02FF92846FFF7D8FAFFF760FE5D
:100B8000206B801C00D120630020F8BD40000020B5
:100B900010B590F83610012280F835108A400221F5
:100BA000826380F83410FFF7AEFF0348006808B195
:100BB000FFF746FE002010BD4000002070B504463F
:100BC00090F8340000F00F00012802D04FF0FF3001
:100BD00070BDFFF7A7FA054694F8340020F00F0027
:100BE000801C84F834002046FFF77EFE04F14400A8
:100BF00000F036F92846FFF799FA002070BD10B5CD
:100C000004466FF00100206304F11400FFF796FD25
:100C10002046FFF741FEBDE81040FFF711BE00007F
:100C200070B5FFF77FFA06461348046894F834005D
:100C300000F00F00012819D1D4E90501884215D030
:100C400004F114000546FFF779FD94F835000B49CF
:100C500001EBC00041680D60416869604560286033
:100C60003046FFF763FAFFF7EBFD02E03046FFF78F
:100C70005DFA002070BD000040000020D00200207E
:100C8000002802DA4FF0FF3070474FF47A7190FB82
:100C9000F1F290FBF1F301FB130000EB40034A4338
:100CA000C3EBC0104B1E03EBC00090FBF1F01044EF
:100CB00070470000014800687047000014000020E1
:100CC000094810B50168491C0160FFF73BFF016C42
:100CD000491E016403D1C16B0164FFF7A1FFBDE8A8
:100CE000104000F003B80000140000202DE9F0418E
:100CF000FFF7E0FF0646FFF715FA0746144D1EE022
:100D000060696FF00041301A143C88421AD22046C4
:100D1000FFF700FCD4E907108847FFF7CBFF064632
:100D2000607A810708D5C10706D020F00100607203
:100D3000204600F04FF802E020F0010060722C68BD
:100D4000AC42DDD13846BDE8F041FFF7EFB9000015
:100D50005400002049B1012904D0022908D00329F8
:100D60000ED109E0406A10600AE01168416207E0B4
:100D7000417A21F0020102E0417A41F00201417220
:100D80000020704770B50546FFF7CCF904462846A9
:100D9000FFF7C0FB2046FFF7C9F92846FFF7FBFC29
:100DA000002070BD2DE9F0411746DDE906580A46DE
:100DB0001E4604460A21FFF713FD28F00101617267
:100DC0000021C4E90951C4E9077614346460246041
:100DD000BDE8F081F8B50446FFF7A4F905462046C2
:100DE000FFF798FB607A20F0010060722846FFF759
:100DF0009DF9FFF75FFF616A0844A062FFF792F96F
:100E00000546164A0020009202EBC002694653686C
:100E10006FF0004C5DF820200BE01268A2EBC006DA
:100E20007769A66AB74202D0BE1B664503D341F874
:100E300020209A42F1D10948001F0168491C016035
:100E400004F114010098FFF772FC607A40F0010091
:100E500060722846FFF76AF90020F8BD54000020B0
:100E600070B50446407AC0070ED0FFF75BF905461F
:100E70002046FFF74FFB2846FFF758F9607A20F02D
:100E800001006072002070BD4FF0FF3070BD002087
:100E9000704700207047002070470020704710B551
:100EA000FFF740F9FFF7D8FBFFF742FDFFF782FDA0
:100EB000FFF752FDFFF76CFBFFF782FDFFF7E8FD40
:100EC000FFF764FD002010BD0000000000000000DE
:100ED00001020304060708090000010002000100E6
:100EE00003000100020001000400010002000100F3
:100EF00003000100020001000500010002000100E2
:100F000003000100020001000400010002000100D2
:100F100003000100020001000600010002000100C0
:100F200003000100020001000400010002000100B2
:100F300003000100020001000500010002000100A1
:100F40000300010002000100040001000200010092
:100F5000030001000200010007000100020001007F
:100F60000300010002000100040001000200010072
:100F70000300010002000100050001000200010061
:100F80000300010002000100040001000200010052
:100F90000300010002000100060001000200010040
:100FA0000300010002000100040001000200010032
:100FB0000300010002000100050001000200010021
:100FC0000300010002000100040001000200010012
:100FD000030001000200010030313233343536376E
:100FE00038396162636465660030313233343536D6
:100FF0003738394142434445460000009B0E000803
:10100000930E00088F0E0008970E00082C100008A1
:10101000000000205C000000600400088810000848
:101020005C000020B4040000700400080024F400F8
:1010300000000000000000000000000000000000B0
:10104000000000000000000001000000200000205F
:1010500020000020780000000A000000300000207E
:10106000300000202C000000000000000000000004
:101070000000000000000000000000000000000070
:08108000000000000000000068
:04000005080000ED02
:00000001FF
